:100000000C9474050C949C050C949C050C949C0514
:100010000C949C050C949C050C949C050C944D1719
:100020000C949C050C949C050C949C050C949C05CC
:100030000C949C050C949C050C949C050C949C05BC
:100040000C9401180C949C050C94CF170C94A917D0
:100050000C949C050C949C050C949C050C949C059C
:100060000C944B180C949C0508000000BE92244987
:10007000123EABAAAA2ABECDCCCC4C3E00000080DA
:10008000BEABAAAAAA3E00000000BF000000803F4D
:100090000000000000084178D3BB4387D1133D190D
:1000A0000E3CC3BD4282AD2B3E68EC8276BED98F3A
:1000B000E1A93E4C80EFFFBE01C4FF7F3F0000007E
:1000C0000000000103070F1F3F7F0080C0E0F0F831
:1000D000FCFE00000000003E5B4F5B3E3E6B4F6B42
:1000E0003E1C3E7C3E1C183C7E3C181C577D571C19
:1000F0001C5E7F5E1C00183C1800FFE7C3E7FF0092
:1001000018241800FFE7DBE7FF30483A060E2629DF
:10011000792926407F050507407F05253F5A3CE7A2
:100120003C5A7F3E1C1C08081C1C3E7F14227F2268
:10013000145F5F005F5F06097F017F006689956A33
:10014000606060606094A2FFA29408047E040810BE
:10015000207E201008082A1C08081C2A08081E10E7
:100160001010100C1E0C1E0C30383E3830060E3E9F
:100170000E06000000000000005F000000070007FE
:1001800000147F147F14242A7F2A12231308646228
:1001900036495620500008070300001C2241000089
:1001A00041221C002A1C7F1C2A08083E08080080E7
:1001B000703000080808080800006060002010087F
:1001C00004023E5149453E00427F40007249494980
:1001D000462141494D331814127F102745454539B2
:1001E0003C4A4949314121110907364949493646B6
:1001F0004949291E00001400000040340000000896
:100200001422411414141414004122140802015938
:1002100009063E415D594E7C1211127C7F494949C5
:10022000363E414141227F4141413E7F494949415A
:100230007F090909013E414151737F0808087F0089
:10024000417F41002040413F017F081422417F400F
:100250004040407F021C027F7F0408107F3E4141E6
:10026000413E7F090909063E4151215E7F09192956
:1002700046264949493203017F01033F4040403F40
:100280001F2040201F3F4038403F63140814630381
:10029000047804036159494D43007F414141020400
:1002A000081020004141417F040201020440404007
:1002B0004040000307080020545478407F284444FD
:1002C000383844444428384444287F385454541817
:1002D00000087E090218A4A49C787F080404780012
:1002E000447D40002040403D007F102844000041F4
:1002F0007F40007C047804787C0804047838444407
:100300004438FC1824241818242418FC7C080404FD
:1003100008485454542404043F44243C4040207C66
:100320001C2040201C3C4030403C44281028444CB9
:100330009090907C4464544C440008364100000086
:10034000770000004136080002010204023C262327
:10035000263C1EA1A161123A4040207A38545455DF
:1003600059215555794122545478422155547840A9
:1003700020545579400C1E52721239555555593931
:100380005454545939555454580000457C41000286
:10039000457D420001457C407D1211127DF02825EB
:1003A00028F07C545545002054547C547C0A097F25
:1003B0004932494949323A4444443A324A48483039
:1003C0003A4141217A3A42402078009DA0A07D3DEB
:1003D0004242423D3D4040403D3C24FF2424487E73
:1003E0004943662B2FFC2F2BFF0929F620C0887E5E
:1003F000090320545479410000447D413048484A63
:1004000032384040227A007A0A0A727D0D19317D15
:100410002629292F28262929292630484D402038E9
:100420000808080808080808382F10C8ACBA2F10A8
:100430002834FA00007B000008142A142222142A0F
:1004400014085500550055AA55AA55AAFF55FF5541
:10045000FF000000FF00101010FF00141414FF0034
:100460001010FF00FF1010F010F0141414FC001412
:1004700014F700FF0000FF00FF1414F404FC141430
:1004800017101F10101F101F1414141F001010102D
:10049000F0000000001F101010101F10101010F0BE
:1004A00010000000FF101010101010101010FF109E
:1004B000000000FF140000FF00FF00001F101700E5
:1004C00000FC04F414141710171414F404F40000BE
:1004D000FF00F714141414141414F700F714141470
:1004E000171410101F101F141414F4141010F0100F
:1004F000F000001F101F0000001F14000000FC147B
:100500000000F010F01010FF10FF141414FF14106E
:1005100010101F00000000F010FFFFFFFFFFF0F0C1
:10052000F0F0F0FFFFFF0000000000FFFF0F0F0FD3
:100530000F0F3844443844FC4A4A4A347E020206CB
:1005400006027E027E0263554941633844443C04FE
:10055000407E201E2006027E020299A5E7A5991C76
:100560002A492A1C4C7201724C304A4D4D30304899
:10057000784830BC625A463D3E494949007E0101F7
:10058000017E2A2A2A2A2A44445F444440514A448C
:100590004040444A51400000FF0103E080FF00005A
:1005A00008086B6B083612362436060F090F060052
:1005B0000018180000001010003040FF0101001F5B
:1005C00001011E00191D1712003C3C3C3C000000BC
:1005D00000000000000023002600290000000008A1
:1005E00000020100000304070000000000000000FA
:1005F00000000000240027002A00DB40A4A62EAF44
:100600002000A1C8D300408DAED580A800006000B6
:1006100000000000000000000000000000E00000FA
:10062000000000000000000000000001E0000000E9
:100630000000000000000000000001F000000000C9
:1006400000000000000000000003F00000000000B7
:10065000000000000000000007F0000000000000A3
:100660000000000000000007F8000000000000008B
:100670000000000000000FF800000003C0007E0032
:100680000001E0007F0FF800000003C000FE000042
:1006900001E000FFEFF800000003C000FE000001D1
:1006A000E000FFFFF800000003C000F00000000FB2
:1006B000007FFE7FC0000003C000F00000000F00BC
:1006C0003FFE7FF83FF1FBCFFCFEF3BC3DEFE01FA8
:1006D000FE7FFF7FFBFFDFFEFEFFBC3DEFE01FC69E
:1006E000FFFF7FFBFFDFFEFEFFBC3DEFE00FE3C738
:1006F000FE787BC3DE1EF0FFBC3DEF0007FF87FCEA
:10070000787BC3DE1EF0F83C3DEF0001FFFFF000F8
:100710007BC3C01EF0F03C3DEF0001F37FE03FFBE8
:10072000C3CFFEF0F03C3DEF0003E33F807FFBC30F
:10073000DFFEF0F03C3DEF0007E73C00787BC3DED6
:100740001EF0F03C3DEF0007FFBE00787BC3DE1ECD
:10075000F0F03C3DEF0007FFFE00787BC3DE1EF0AB
:10076000F03C3DEF000FFFFE007FFBFFDFFEF0F0EF
:100770003FFDEFE00FFFFF007FFBFFDFFEF0F03FEC
:10078000FDEFE00FF9FF003E79F9CF9EF0F01F3D3D
:10079000E7E01FF1FF000000000000000000000083
:1007A000001F80FF007FFFFFFFFFFFFFFFFFFFE055
:1007B0001C007F007FFFFFFFFEB46D888D18E000F6
:1007C000001F007FFFFFFFFE95AD7DB577E00000C5
:1007D0000F007FFFFFFFFEA5AD9D8D19E000000615
:1007E000007FFFFFFFFEB5ADEDB57EE0000000002D
:1007F00000018000000000000000000003800000F5
:100800000000000000000007C00000000000000021
:10081000000007C00000000000000000000FC00042
:1008200000000000000000001FE0000000000000C9
:100830000000001FE00000000000000000003FE09A
:100840000000000000000000003FF0000000000079
:10085000000000007FF0000000000000001FF87F93
:10086000F0000000000000003FFE7FF000000000EC
:100870000000003FFF7FF0000000000000001FFFAD
:10088000FBE0000000000000000FFFF9FFC00000C7
:10089000000000000FFFF9FFF80000000000000753
:1008A000FFF1FFFF00000000000003FC73FFFF806A
:1008B000000000000001FE3FFFFF8000000000007C
:1008C00000FF1E0FFF000000000000007FFE1FFC65
:1008D000000000000000003FFFFFF80000000000E3
:1008E00000000FDFFFE0000000000000001F19FF04
:1008F000C0000000000000003F3CFF0000000000BE
:100900000000007E7CF800000000000000007FFE78
:100910007C0000000000000000FFFFFC0000000061
:1009200000000000FFFFFE0000000000000000FFCC
:10093000FFFE0000000000000001FFEFFE000000CD
:100940000000000001FFCFFE0000000000000003D7
:10095000FF07FE0000000000000003FC07FE00008F
:10096000000000000003F003FE0000000000000093
:10097000018000FE000000000000000000007E007A
:100980000000000000000000003E00000000000029
:10099000000000000C000000000000078000FC00C8
:1009A0000003C0000000078001FC000003C000003D
:1009B00000078001FC000003C0000000078001E088
:1009C0000000001E000000078001E00000001E0083
:1009D0007FE3F79FF9FDE7787BDFC0FFF7FFBFFDFF
:1009E000FDFF787BDFC0FFF7FFBFFDFDFF787BDFFA
:1009F000C0F0F787BC3DE1FF787BDE00F0F787BCF5
:100A00003DE1F0787BDE0000F787803DE1E0787B18
:100A1000DE007FF7879FFDE1E0787BDE00FFF78750
:100A2000BFFDE1E0787BDE00F0F787BC3DE1E078D8
:100A30007BDE00F0F787BC3DE1E0787BDE00F0F77D
:100A400087BC3DE1E0787BDE00FFF7FFBFFDE1E022
:100A50007FFBDFC0FFF7FFBFFDE1E07FFBDFC07C76
:100A6000F3F39F3DE1E03E7BCFC0000000000000BB
:100A70000000000000FFFFFFFFFFFFFFFFFFFFC0C0
:100A8000FFFFFFFFFD68DB111A31C0FFFFFFFFFD15
:100A90002B5AFB6AEFC0FFFFFFFFFD4B5B3B1A3396
:100AA000C0FFFFFFFFFD6B5BDB6AFDC001020408B6
:100AB00010204080010204081020010204081020C8
:100AC00000000000250028002B0004040404040496
:100AD00004040202020202020303030303030222CC
:100AE00000FF21006A19782111241FBECFEFD8E042
:100AF000DEBFCDBF12E0A0E0B1E0E4E2FCE402C062
:100B000005900D92AC36B107D9F724E0ACE6B2E01F
:100B100001C01D92A334B207E1F715E0C3E7D5E0A9
:100B200004C02197FE010E94BF24C237D107C9F734
:100B30000E94ED190C9405260C9400000895089568
:100B40000895DC01ED91FC910190F081E02D099474
:100B5000AF92BF92CF92DF92EF92FF920F931F93CB
:100B6000CF93DF936C017B018B01040F151FEB0109
:100B70005E01AE18BF08C017D10759F06991D601C0
:100B8000ED91FC910190F081E02DC6010995892B32
:100B900079F7C501DF91CF911F910F91FF90EF90F1
:100BA000DF90CF90BF90AF900895FC01538D448D9E
:100BB000252F30E0842F90E0821B930B541710F008
:100BC000CF96089501970895FC01918D828D981715
:100BD00061F0A28DAE0FBF2FB11D5D968C91928DED
:100BE0009F5F9F73928F90E008958FEF9FEF08951E
:100BF000FC01918D828D981731F0828DE80FF11DE7
:100C0000858D90E008958FEF9FEF0895FC01918D01
:100C1000228D892F90E0805C9F4F821B91098F73FA
:100C20009927089586E593E00E94060621E0892B26
:100C300009F420E0822F089580E090E0892B29F0CC
:100C40000E94120681110C9400000895FC01A48DED
:100C5000A80FB92FB11DA35ABF4F2C91848D90E0DE
:100C600001968F739927848FA689B7892C93A089C1
:100C7000B1898C91837080648C93938D848D98134B
:100C800006C00288F389E02D80818F7D80830895DE
:100C9000EF92FF920F931F93CF93DF93EC0181E0CC
:100CA000888F9B8D8C8D98131AC0E889F989808173
:100CB00085FF15C09FB7F894EE89FF896083E889A6
:100CC000F98980818370806480839FBF81E090E098
:100CD000DF91CF911F910F91FF90EF900895F62E25
:100CE0000B8D10E00F5F1F4F0F731127E02E8C8DBF
:100CF0008E110CC00FB607FCFACFE889F989808104
:100D000085FFF5CFCE010E942606F1CFEB8DEC0FCB
:100D1000FD2FF11DE35AFF4FF0829FB7F8940B8F20
:100D2000EA89FB8980818062CFCFCF93DF93EC018A
:100D3000888D8823B9F0AA89BB89E889F9898C91C3
:100D400085FD03C0808186FD0DC00FB607FCF7CF7F
:100D50008C9185FFF2CF808185FFEDCFCE010E947F
:100D60002606E9CFDF91CF910895833081F028F4F2
:100D7000813099F08230A9F008958730A9F0883049
:100D8000C9F08430B1F4809180008F7D03C08091E0
:100D900080008F7780938000089584B58F7784BD1D
:100DA000089584B58F7DFBCF8091B0008F778093BD
:100DB000B00008958091B0008F7DF9CFCF93DF937D
:100DC000282F30E0F901E452FA4F8491F901E455FB
:100DD000F54FD491F901E653F54FC491CC23A1F01E
:100DE00081110E94B506EC2FF0E0EE0FFF1FEE52CE
:100DF000FA4FA591B491EC91ED2381E090E009F4D4
:100E000080E0DF91CF91089580E090E0FACF1F93CA
:100E1000CF93DF93282F30E0F901E452FA4F849109
:100E2000F901E455F54FD491F901E653F54FC4911A
:100E3000CC23A9F0162F81110E94B506EC2FF0E00B
:100E4000EE0FFF1FE054F54FA591B4918FB7F894C2
:100E5000EC91111108C0D095DE23DC938FBFDF9198
:100E6000CF911F910895DE2BF8CF90910001891347
:100E70000BC0EEEDFAE0E4919FEF90930001E130BA
:100E800049F028F0E23061F060E00C94070710921E
:100E90006E00FACF90916F009D7F90936F00F4CF1A
:100EA000909170009D7F9093700091E09093B000BE
:100EB0009091B100987F94609093B1001092B3002C
:100EC000E3CFCF93DF9390E0FC01E455F54F2491FD
:100ED0008653954FFC0184918823D1F090E0880FD0
:100EE000991FFC01E051FA4FA591B491FC01E05427
:100EF000F54FC591D49161110EC09FB7F8948C91B4
:100F0000E22FE0958E238C932881E223E8839FBF14
:100F1000DF91CF9108958FB7F894EC91E22BEC9389
:100F20008FBFF6CF3FB7F8948091210390912203B1
:100F3000A0912303B091240326B5A89B05C02F3FA1
:100F400019F00196A11DB11D3FBFBA2FA92F982FEF
:100F50008827BC01CD01620F711D811D911D42E0EA
:100F6000660F771F881F991F4A95D1F708958F92B2
:100F70009F92AF92BF92CF92DF92EF92FF926B015E
:100F80007C010E9492074B015C01C114D104E10471
:100F9000F104B9F00E949207681979098A099B093E
:100FA000683E73408105910580F321E0C21AD108A3
:100FB000E108F10888EE880E83E0981EA11CB11CA0
:100FC000E4CFFF90EF90DF90CF90BF90AF909F90D5
:100FD0008F9008952091D202260F3327331F21329C
:100FE0003105ECF42091F602FC0190E080E0243021
:100FF00069F082E00895A091D2022191AC014E5493
:101000005D4FA40FB52FB11D2C930196861798F351
:101010008091D202680F6093D20280E0089581E04F
:1010200008951092F60281E08093F8021092F70280
:1010300061E082E10E94070761E083E10E94070707
:10104000E9EBF0E080818E7F808380818D7F8083DB
:1010500088E48093B80085E48093BC000895CF9322
:10106000DF9391E09093B1028823B9F0C091B8006A
:10107000D091BA008091BC008A7B8093BC0060E074
:1010800082E10E94070760E083E10E9407070E9457
:101090001108D093BA00C093B800DF91CF910895A2
:1010A000E0912B0380912A03E81730F4F0E0E45735
:1010B000FD4F808190E008958FEF9FEF089590910C
:1010C0002B0380912A032FEF3FEF981748F4E92F65
:1010D000F0E0E457FD4F208130E09F5F90932B03B9
:1010E000C901089580912A0390912B03891B990BC4
:1010F0000895CF92DF92EF92FF920F931F93CF93B9
:10110000DF937C01CB018A0120915503222389F0D2
:10111000EB016B01C40ED51ECC15DD0569F069919C
:10112000D701ED91FC910190F081E02DC701099567
:10113000F3CF642F0E94EA07C801DF91CF911F917E
:101140000F91FF90EF90DF90CF900895CF93DF93B2
:101150001F92CDB7DEB76983209155032223F9F0A2
:1011600020915203203258F021E030E0FC0133831B
:10117000228390E080E00F90DF91CF9108958091DD
:101180005303E82FF0E0E459FD4F998190838F5F7E
:10119000809353038093520381E090E0ECCF61E0B1
:1011A000CE0101960E94EA07F7CFCF92DF92EF922D
:1011B000FF920F931F93CF93DF93D091520381E05F
:1011C000D13208F09CC0C09154030E9492076B0179
:1011D0007C018091F60281116CC082E08093F6025E
:1011E00081E08093F8028FEF8093F50210921A034A
:1011F000D0931903ACE6B2E0E9EFF2E080E0D81357
:101200008DC010921B0380911B03CC0FC82BC09381
:101210001B038091F702813009F084C01092F7021D
:101220000E9492076B017C0180911B038093BB009D
:101230008091AD029091AE02A091AF02B091B00248
:10124000892B8A2B8B2BA1F00E9492070091AD0273
:101250001091AE022091AF023091B0026C197D095D
:101260008E099F09061717072807390708F442C097
:101270008091BC0083FDD8CF85EC8093BC000E9498
:1012800092076B017C018091F602823009F44CC018
:101290008091F5028F3F09F469C08091F502803298
:1012A00009F466C08091F502803309F463C084E0DC
:1012B00026C08091AD029091AE02A091AF02B09194
:1012C000B002892B8A2B8B2B09F483CF0E949207C3
:1012D0000091AD021091AE022091AF023091B002A8
:1012E0006C197D098E099F0906171707280739070A
:1012F00008F06FCF8091AC020E942F0885E0109219
:1013000053031092520310925503DF91CF911F9116
:101310000F91FF90EF90DF90CF9008959D91919362
:101320008F5F6DCF85EEA9CF8091AD029091AE0217
:10133000A091AF02B091B002892B8A2B8B2B09F4BC
:10134000A2CF0E9492070091AD021091AE022091AF
:10135000AF023091B0026C197D098E099F09061702
:1013600017072807390708F08ECFC4CF80E0C7CF12
:1013700082E0C5CF83E0C3CF0895FC016370668B24
:101380008481958126813781613039F0633029F07D
:1013900091878087338722870895318720879387B5
:1013A000828708952F923F924F925F926F927F9221
:1013B0008F929F92AF92BF92CF92DF92EF92FF9265
:1013C0000F931F93CF93DF93CDB7DEB76A970FB616
:1013D000F894DEBF0FBECDBF9A8F898F7A83698361
:1013E0004A01D22E18870F833701BC2CDC01599695
:1013F0002D913C915A972115310509F015C1189688
:101400008D919C911997681779070CF0D7C11A969E
:101410008D919C91481759070CF0D0C14C2C512C40
:10142000B6E0CB9E600D711D11247C876B8716166C
:1014300017060CF0C3C1EA2DF0E0FA87E98793E0C4
:10144000EE0FFF1F9A95E1F7F88BEF87CF01840F1E
:10145000951F181619060CF0B1C1A98DBA8D5896B2
:101460008C91811104C0BFEABD1508F4D394A98DF5
:10147000BA8DED91FC9111970284F385E02DCD0199
:101480000995B5E0DB9EC0011124E981FA81FC8356
:10149000EB83312C212C9C012E523F4F388F2F8B08
:1014A0004A2D50E05E8B4D8BEF89F88DE20DF31DD8
:1014B00044919E828D82D12CC12C69817A81620DEA
:1014C000731D7A8B698B842F90E09C8B8B8BE98DBD
:1014D000FA8DA081B18140FF82C0F1E0BF126FC0E0
:1014E000AF126DC01C96ED91FC912F813885A4013F
:1014F0004C0D5D1D69897A89898D9A8D0995EB89D5
:10150000FC89F595E7954E2F5FEFC51AD50A6D81D9
:101510007E818D899E89680F791F7E836D8398E017
:10152000C916D10481F6AFEF2A1A3A0AEB81FC8181
:10153000E40DF51DFC83EB83F5E02F16310409F073
:10154000B3CF2F81388526153705B9F0A98DBA8D0F
:10155000ED91FC91B1E0BB1257C0AB1255C069814F
:101560007A816B5F7F4F0088F189E02D830128E04D
:1015700030E0A401898D9A8D0995A98DBA8DED91E0
:10158000FC9111970688F789E02DCD016A960FB678
:10159000F894DEBF0FBECDBFDF91CF911F910F91A9
:1015A000FF90EF90DF90CF90BF90AF909F908F9083
:1015B0007F906F905F904F903F902F9009941E9670
:1015C000ED91FC91EF80F88409851A8592014D8197
:1015D0005E816B817C81898D9A8D099590CF2F8159
:1015E00038852615370509F48ACF31E0B31207C0D4
:1015F000A31205C01C96ED91FC91930178CF1E9625
:10160000ED91FC917301E0CF6B857C8564197509C0
:101610000684F785E02D73010F8518899201A401D6
:10162000898D9A8D0995A9CFF901349694913297B5
:1016300045915491D91AB7E0DB9E400D511D1124FC
:10164000F901259134913C8B2B8BFA012590349034
:10165000FA013296749031963491398B32966490B7
:101660003196449041E04C1518F04A1508F07FC0BF
:10167000662D062C000C770B7C836B83842D042C49
:10168000000C990B9E838D83A98DBA8DED91FC91F1
:1016900011970284F385E02DCD010995512CD12CB1
:1016A000C12CEA2DF0E0FA87E9872B2D30E03C874A
:1016B0002B87A401440D511D47FC5A95588F4F8B21
:1016C00069817A81660D711D67FC7A957E876D87C9
:1016D0007989C71608F051CF2C2D30E04D815E81FD
:1016E000420F531FA985BA854A9FC0014B9F900D99
:1016F0005A9F900D1124FC01E80DF91DF88BEF871E
:10170000852D612C4F89588D420F531F5E8B4D8B59
:10171000671408F050C044244394480E877041F485
:10172000C1010196EB89FC89E20DF31DD4901C01E7
:10173000D7FE19C0A98DBA8DED91FC91662D70E090
:10174000B1E0BB1219C0AB1217C02D853E85620FE8
:10175000731F0484F585E02D2F8138854D895E89BE
:10176000898D9A8D0995DD0C6394842DD1CF1E82CD
:101770001D821C821B8288CF4B815C81640F751F88
:10178000AB85BC856A9FC0016B9F900D7A9F900DC1
:10179000112469817A81680F791F0684F785E02D0D
:1017A000EF80F88409851A859D014F855889898DB8
:1017B0009A8D0995D8CF570CC3948ACF6A960FB6E5
:1017C000F894DEBF0FBECDBFDF91CF911F910F9177
:1017D000FF90EF90DF90CF90BF90AF909F908F9051
:1017E0007F906F905F904F903F902F9008958F92D1
:1017F0009F92AF92CF92EF92FF920F931F93CF934E
:10180000DF93EC01262F898D9A8D009709F051C046
:101810006A30D1F41D861C868D8948E0849F900132
:1018200011248E859F85820F931F9F878E8781E06D
:1018300090E0DF91CF911F910F91FF90EF90CF90AB
:10184000AF909F908F9008956D3089F3CC88AD88CC
:101850008F898823C1F08C859D8536E0C39E800DDD
:10186000911D1124488559854817590764F44E8500
:101870005F851D861C8638E0A39EC0011124840F5D
:10188000951F9F878E87EA88FB88088919894E856E
:101890005F856C857D85CE010E94D2092C898C855F
:1018A0009D8546E0249F800D911D11249D878C8786
:1018B000BECF6A3069F41D861C86FC013896E4911F
:1018C0002D898E859F85E29F800D911D1124ADCFBE
:1018D0006D3009F4ACCFFC0134963491631708F4F1
:1018E000A6CF3296E491E61708F4A1CFFC01329618
:1018F00085909490462F431B342F47E0349F800CF3
:10190000911C1124F401329634913196E4913323E1
:10191000A9F1EE2399F1CC88F4013596E491AD88D4
:101920004F89442301F10E2E000CFF0BE30FF11D34
:10193000CE9EA001CF9E500D11246C857D85460F53
:10194000571F68857985641775076CF44E855F8528
:101950001D861C86FC013896E491AE9E400D511DFB
:1019600011245F874E87EA88FB88088919894E858C
:101970005F856C857D85CE010E94D209F401349685
:10198000E4912C898C859D85E29F800D911D112409
:101990008DCF6F927F928F929F92AF92BF92CF9294
:1019A000DF92EF92FF920F931F93CF93DF93EC019F
:1019B0006B015A0139014801E881F9810284F385FC
:1019C000E02D0995E881F9810288F389E02D8701EE
:1019D0009301A501B601CE010995A501480D591D38
:1019E00041505109E881F9810288F389E02D930182
:1019F000B601CE010995E881F9810088F189E02DD1
:101A00009401A501B601CE010995C60CD71CB601FB
:101A100061507109E881F9810088F189E02D940114
:101A2000A501CE010995E881F9810688F789E02DA5
:101A3000CE01DF91CF911F910F91FF90EF90DF903A
:101A4000CF90BF90AF909F908F907F906F900994B0
:101A50006F927F928F929F92AF92BF92CF92DF92BE
:101A6000EF92FF920F931F93CF93DF935C01EB01F3
:101A70006A01490138018701DC01ED91FC9162178F
:101A8000730719F5641675062CF0962D872D3A010B
:101A9000C92ED82E9601261937092F5F3F4F048C87
:101AA000F58DE02DA301BE01C5010995DF91CF9110
:101AB0001F910F91FF90EF90DF90CF90BF90AF906C
:101AC0009F908F907F906F9008954615570591F4E1
:101AD0002617370724F0892D4B01C22FD82F9E01DE
:101AE000281939092F5F3F4F068CF78DE02DA6018D
:101AF000B401DACF0284F385E02D0995D501ED918B
:101B0000FC910488F589E02D83019401A601BE01B2
:101B1000C5010995D501ED91FC910688F789E02D65
:101B2000C501DF91CF911F910F91FF90EF90DF9052
:101B3000CF90BF90AF909F908F907F906F900994BF
:101B4000EF92FF920F931F93DC011A960D911C9157
:101B50001B9718962D913C911997ED91FC9100A03F
:101B6000F1A1E02D7B0150E040E070E060E00995DC
:101B70001F910F91FF90EF9008954F925F926F9297
:101B80007F928F929F92AF92BF92CF92DF92EF920D
:101B9000FF920F931F93CF93DF936C012B015A0198
:101BA00039014801DC01ED91FC910284F385E02DBF
:101BB0000995E201640C751CD601ED91FC91C615E6
:101BC000D7055CF40088F189E02D87019401A50117
:101BD000BE01C60109952196EFCF0688F789E02D51
:101BE000C601DF91CF911F910F91FF90EF90DF9091
:101BF000CF90BF90AF909F908F907F906F905F90AD
:101C00004F9009948F929F92AF92BF92CF92DF92A2
:101C1000EF92FF920F931F93CF93DF93EC015B0141
:101C20004A016901E881F9810284F385E02D099573
:101C300095012C0D3D1D21503109E881F981048861
:101C4000F589E02D78018401A401B501CE01099543
:101C5000E881F9810688F789E02DCE01DF91CF91E7
:101C60001F910F91FF90EF90DF90CF90BF90AF90BA
:101C70009F908F9009948F929F92AF92BF92CF9234
:101C8000DF92EF92FF920F931F93CF93DF93EC01BC
:101C90005B014A0169017801E881F9810284F385D9
:101CA000E02D0995C80CD91C860101501109E88165
:101CB000F9810488F589E02D9501A401B501CE01D3
:101CC0000995E881F9810688F789E02DCE01DF9139
:101CD000CF911F910F91FF90EF90DF90CF90BF9029
:101CE000AF909F908F900994EF92FF920F931F9364
:101CF000DC01ED91FC9100A0F1A1E02D09951F916F
:101D00000F91FF90EF9008950F931F93DC01ED91D9
:101D1000FC91068CF78DE02D09951F910F91089588
:101D20000F931F93DC01ED91FC91048CF58DE02D58
:101D300009951F910F910895DC01ED91FC910084AC
:101D4000F185E02D09943F924F925F926F927F92BE
:101D50008F929F92AF92BF92CF92DF92EF92FF92BB
:101D60000F931F93CF93DF935C017B014A016901BD
:101D7000390187E0680E711C93E0759467949A9519
:101D8000E1F72B01400E511E10E000E0312CD0E0B5
:101D9000C0E0CE0187709927330C892B59F4FE01DE
:101DA00083E0F595E7958A95E1F7E00FF11FE80DDF
:101DB000F91D349037FE0AC021E030E0A701B501DB
:101DC0006C0F7D1F8FEF93E00E949C0E2196CC1626
:101DD000DD06F9F68FEFE81AF80A060D171DE41470
:101DE000F504A9F6DF91CF911F910F91FF90EF902D
:101DF000DF90CF90BF90AF909F908F907F906F902B
:101E00005F904F903F9008952F923F924F925F9234
:101E10006F927F928F929F92AF92BF92CF92DF92FA
:101E2000EF92FF920F931F93CF93DF9300D000D0D8
:101E300000D0CDB7DEB73C016A013E832D83FC8222
:101E4000EB825801A41AB50AB7FE03C0B194A1945D
:101E5000B1088D809E80861A970A97FE03C09194E0
:101E6000819491088A149B045CF0902F812F0D813E
:101E70001E819D838E839C2D8D2D6B01692F782F64
:101E80000C151D055CF09D818E817E836D83692F0D
:101E9000782F902F812F8601C92ED82E1601201A57
:101EA000310A2B012D813E81421A530A57FE03C08D
:101EB000519441945108710137FE03C03FEFE31A7A
:101EC000F30AF594E7948D819E81861797075CF558
:101ED000A1E0B0E0BA83A983C016D1064CF1D301CA
:101EE000ED91FC910484F585E02D2B813C81A801C6
:101EF0006D817E818A149B041CF04D815E81B80146
:101F0000C3010995E418F508F7FE0AC02D813E814A
:101F100089819A81280F391F3E832D83E20CF31C9F
:101F20000F5F1F4FD9CF2FEF3FEF3A832983D4CFD5
:101F300026960FB6F894DEBF0FBECDBFDF91CF91CE
:101F40001F910F91FF90EF90DF90CF90BF90AF90D7
:101F50009F908F907F906F905F904F903F902F90C9
:101F60000895EF92FF920F931F93CF93DF93EC01AD
:101F7000EC80FD806E157F050CF070C057FF04C02B
:101F8000240F351F50E040E08E819F81FA01E20F5F
:101F9000F31F8E179F071CF49C01241B350B121690
:101FA00013060CF05BC0922F842F8695869586953C
:101FB0008E9DD0018F9DB00D11246A0F7B1FAF8DB8
:101FC000B8A1A60FB71F477049F188E0841B482FBE
:101FD000682F70E0FB01E653FF4FE491281708F0EB
:101FE00063C0621B71092FEF30E002C03595279561
:101FF0006A95E2F7E2230130110539F0B0F10230C1
:10200000110561F58C91E82702C08C91E82BEC93C7
:10201000941720F12C813D81A20FB31FE92FE41BFF
:10202000E83078F00230110521F58E2F9C919095C3
:102030009C932C813D81A20FB31F88508830B0F74C
:10204000E770EE2359F0F0E0EE53FF4FE4910130DA
:102050001105F9F010F10230110519F1DF91CF915E
:102060001F910F91FF90EF900895E0958C91E823D8
:10207000CECF81E00115110509F480E081959E2FF6
:102080008C932C813D81A20FB31F98509830C0F7DC
:10209000D7CF8C91E82BEC93E1CFE0958C91E8239E
:1020A000FACF8C91E827F7CF0130110509F4ADCFB5
:1020B000E0F20230110509F4A5CFAE0DBF1DAECF81
:1020C0000F931F93CF93DF9377FF04C0260F371F23
:1020D00070E060E0DC011496CD91DC91FB01E20F31
:1020E000F31FCE17DF071CF49E01261B370B1216B9
:1020F00013064CF5FA0157FD3796A3E0F595E795E1
:10210000AA95E1F7EC9FD001ED9FB00DFC9FB00DBB
:1021100011246A0F7B1FDC015F96ED91FC91E60FA5
:10212000F71F4770552781E090E001C0880F4A955E
:10213000EAF7482F0130110559F0A8F02E0F3F1F84
:1021400002301105E1F0DF91CF911F910F910895B9
:102150002E0F3F1FE217F307B1F38191DF011197B3
:10216000842B8C93F7CF80952E0F3F1FE217F30738
:1021700051F39191DF01119798239C93F7CFE217C8
:10218000F30709F38191DF01119784278C93F7CF2F
:102190000F931F93FA01DC0156964C9156974230EB
:1021A000E9F04330A1F1413061F514964D915C9115
:1021B000DA01AE1BBF0BFD01E21BF30B77FD0BC079
:1021C000DC0116964D915C916417750724F4AB0100
:1021D000BF010E9460101F910F91089514964D91B8
:1021E0005C91DA01A61BB70BBD0161507109DC01DE
:1021F00016964D915C91DA01AE1BBF0BFD01E21BFF
:10220000F30B77FDE8CFAF010E94B10FE4CF169634
:102210004D915C91DA01A61BB70BBD0161507109AC
:10222000CDCF0F931F93FA01DC0156964C91569730
:102230004230A9F0433091F1413019F514964D9197
:102240005C91DA01AE1BBF0BFD013197F7FD04C0B5
:10225000AB01BF010E94B10F1F910F910895149619
:102260004D915C91DA01A61BB70BBD01DC011696FE
:102270004D915C91DA01AE1BBF0BFD013197621BE2
:10228000730BF7FDE9CFDC0116964D915C91E417D5
:10229000F50714F7AF010E946010DECF16964D913E
:1022A0005C91DA01A61BB70BBD01621B730BCECF8D
:1022B000FC0177FD64C080859185681779070CF073
:1022C0005EC057FD5CC082859385481759070CF0A6
:1022D00056C086898230B1F0833029F1813041F4D3
:1022E00084819581841B950BAB01BC016150710900
:1022F0002130310509F108F443C02230310509F4D9
:1023000063C0089584819581DC01A61BB70BBD01D4
:102310006150710986819781DC01A41BB50BAD0169
:1023200041505109E5CF86819781861B970BBA01F1
:10233000AC0141505109DCCFCA0157FD0796A3E01B
:1023400095958795AA95E1F7A481B5818A9F90011B
:102350008B9F300D9A9F300D1124620F731F078CD5
:10236000F0A1E02DE60FF71F4770552721E030E080
:1023700001C0220F4A95EAF78081822B808308955D
:10238000CA0157FD079633E0959587953A95E1F791
:10239000A481B5818A9F90018B9F300D9A9F300D4B
:1023A0001124620F731F078CF0A1E02DE60FF71FB9
:1023B0004770552781E090E001C0880F4A95EAF701
:1023C000809590818923DACFCA0157FD079623E0D3
:1023D000959587952A95E1F7A481B5818A9F90010B
:1023E0008B9F300D9A9F300D1124620F731F078C45
:1023F000F0A1E02DE60FF71F4770552721E030E0F0
:1024000001C0220F4A95EAF780818227B7CF08954D
:102410008EBD00000DB407FEFDCF8EB50895EF927E
:10242000FF920F931F93CF93DF937C01C62F809170
:102430001C0490911D04009709F459C020912004B8
:1024400031E03093550320935403109253031092BC
:102450005203DC01ED91FC910190F081E02D60E0F0
:1024600009958701EE24E394F12CD1E0C1508091CD
:102470001C0490911D04CF3F91F1B0E2EB16F104E2
:10248000D8F00E94D50880911C0490911D042091E1
:102490002004D093550320935403109253031092B9
:1024A0005203DC01ED91FC910190F081E02D60E0A0
:1024B0000995EE24E394F12C80911C0490911D0465
:1024C000F8016491DC01ED91FC910190F081E02D27
:1024D0000995BFEFEB1AFB0A0F5F1F4FC7CFDF91C4
:1024E000CF911F910F91FF90EF900C94D508E09140
:1024F0002C04F0912D0490818091320480958923E1
:1025000080838701C15008F438C0F801849120917C
:102510001A0430911B04232B29F00E9408120F5F2C
:102520001F4FF0CF28E030E040E8E0912804F09120
:10253000290490913004582F5423D9F05081952BC1
:102540009083E0912A04F0912B0490815091310402
:10255000952B9083E0912A04F0912B045081909167
:102560003104909595239083469521503109E9F6E1
:10257000D6CF508190959523E3CFDF91CF911F91D6
:102580000F91FF90EF9008951F93CF93DF93EC018D
:102590008D8D9E8D009721F1162F29A131E030936A
:1025A0005503209354031092530310925203DC01FD
:1025B000ED91FC910190F081E02D60E009958D8D09
:1025C0009E8DDC01ED91FC910190F081E02D612F59
:1025D00009958D8D9E8DDF91CF911F910C94D5081B
:1025E000ADA5BEA59C918BA9809589238C938B8DDD
:1025F0009C8D892B31F0862FDF91CF911F910C9408
:10260000081228E030E080E8A9A5BAA599A9462FCC
:102610004823C1F04C91942B9C93ABA5BCA59C91F5
:102620004AA9942B9C93ABA5BCA54C919AA99095D3
:1026300094239C9386952150310931F7DF91CF91F6
:102640001F9108954C9190959423E6CF8CBD9DBD2C
:102650000895DF92EF92FF920F931F93CF93DF9332
:1026600080911C0490911D04892B09F498C020913D
:10267000340430913504409136045091370460E0C1
:1026800074E284EF90E00E946324205131094109F3
:10269000510956954795379527952093B80065E0E1
:1026A0008FED9AE00E940F126091030461508FEF4A
:1026B00093E00E94C4122091050430910604C901E0
:1026C000079697FD079633E0959587953A95E1F73C
:1026D0002091030430910404829F8001839F100D98
:1026E000929F100D1124C0911E04D0911F0480915F
:1026F0001C0490911D040C0F1D1F009709F48FC03E
:102700002091200431E0309355032093540310921C
:10271000530310925203DC01ED91FC910190F08182
:10272000E02D60E40995EE24E394F12CDD24D394AC
:1027300080911C0490911D040C171D0709F446C0DC
:10274000B0E2EB16F104D8F00E94D50880911C0489
:1027500090911D0420912004D0925503209354039E
:102760001092530310925203DC01ED91FC91019001
:10277000F081E02D60E40995EE24E394F12C809142
:102780001C0490911D046991DC01ED91FC91019074
:10279000F081E02D0995BFEFEB1AFB0AC9CF8091BC
:1027A0001A0490911B04892B31F080913D04909183
:1027B0003E040E942613E0912E04F0912F04908194
:1027C0008091330480958923808369CF0E94D50846
:1027D00080911C0490911D04892B09F461C0209103
:1027E00038043091390440913A0450913B0460E040
:1027F00074E284EF90E00E94632420513109410982
:10280000510956954795379527952093B800DF9144
:10281000CF911F910F91FF90EF90DF900895E0917D
:102820002C04F0912D04808190913204892B8083B7
:102830000C171D0769F2899120911A0430911B042D
:10284000232B19F00E940812F3CF28E030E040E873
:10285000E0912804F091290490913004582F5423DA
:10286000D9F05081952B9083E0912A04F0912B04AC
:10287000908150913104952B9083E0912A04F0913E
:102880002B04508190913104909595239083469527
:1028900021503109E9F6CCCF508190959523E3CFB3
:1028A000E0912E04F0912F04808190913304892BC4
:1028B0008083ADCF1F93CF93DF93EC01162F8D8DC7
:1028C0009E8D892BB1F12DA93EA94FA958AD60E08D
:1028D00074E284EF90E00E946324205131094109A1
:1028E000510956954795379527952093B80066EA84
:1028F000111167EACE010E94C4128D8D9E8D892B25
:1029000041F129AD3AAD4BAD5CAD60E074E284EFCE
:1029100090E00E94632420513109410951095695E4
:102920004795379527952093B800DF91CF911F9158
:1029300008958B8D9C8D892B21F08EAD9FAD0E94CB
:102940002613EFA5F8A990818CA98095892380830F
:10295000CECFEFA5F8A980819CA9892B8083E5CFF4
:10296000089590E080E008952091050430910604D8
:10297000C901079697FD079623E0959587952A95B7
:10298000E1F72091030430910404829FA001839F0A
:10299000500D929F500D112470E060E080911E0454
:1029A00090911F040C94FE250E94F925FB010190D3
:1029B0000020E9F73197AF01461B570BDC01ED9181
:1029C000FC910280F381E02D09948F929F92AF9247
:1029D000BF92EF92FF920F931F93CF93DF93CDB7E8
:1029E000DEB7A1970FB6F894DEBF0FBECDBF7C0156
:1029F000FA01CB0119A2223008F42AE08E010F5D02
:102A00001F4F822E912CB12CA12CBF01A501940146
:102A10000E946324F901CA016A300CF5605DD80197
:102A20006E938D01232B242B252B79F790E080E0EA
:102A3000109721F0BD01C7010E94D614A1960FB6D0
:102A4000F894DEBF0FBECDBFDF91CF911F910F91E4
:102A5000FF90EF90BF90AF909F908F900895695C2A
:102A6000DECFCF92DF92EF92FF920F931F93CF931F
:102A7000DF9377FF1DC06A017B01EC016DE20E94CC
:102A8000A1058C0144275527BA014C195D096E092F
:102A90007F092AE0CE010E94E514800F911FDF918B
:102AA000CF911F910F91FF90EF90DF90CF900895FD
:102AB0002AE0DF91CF911F910F91FF90EF90DF906F
:102AC000CF900C94E514CF93DF93BC0186E593E09F
:102AD0000E94D614EC0167E771E086E593E00E945E
:102AE000D6148C0F9D1FDF91CF9108952F923F92A6
:102AF0004F925F926F927F928F929F92AF92BF920E
:102B0000CF92DF92EF92FF921F93CF93DF93EC016E
:102B10006A017B01722EAB019601CB01B6010E94C6
:102B200015246AE771E0811126C046015701E89437
:102B3000B7F82FEF3FEF4FE75FE7C501B4010E9401
:102B4000152481110CC02FEF3FEF4FE75FE7C50160
:102B5000B4010E94F4216EE771E0181664F02FEFC3
:102B60003FEF4FE75FE4C701B6010E9453231816F9
:102B7000B4F462E871E0CE01DF91CF911F91FF9034
:102B8000EF90DF90CF90BF90AF909F908F907F900D
:102B90006F905F904F903F902F900C94D6142FEF32
:102BA0003FEF4FE75FECC701B6010E94F42187FDBC
:102BB000E0CF20E030E0A901C701B6010E94F42176
:102BC000312C212C87FF09C06DE2CE010E94A105A6
:102BD0001C01F7FAF094F7F8F09410E060E070E070
:102BE00080E09FE3711641F020E030E040E251E4E4
:102BF0000E94F9211F5FF6CFA70196010E9488214C
:102C00002B013C010E9472224B015C012AE0BC01B5
:102C1000A401CE010E94E5147C01E20CF31C1123F7
:102C2000C1F1C501B4010E94A1229B01AC01C30105
:102C3000B2010E9487214B015C016EE2CE010E942D
:102C4000A105E80EF91E115020F120E030E040E22D
:102C500051E4C501B4010E94A8232B013C010E944C
:102C600072224B01B12CA12C2AE0B501A401CE01A6
:102C70000E94E514E80EF91EC501B4010E94A122CC
:102C80009B01AC01C301B2010E9487214B015C0191
:102C9000DACFC701DF91CF911F91FF90EF90DF90C6
:102CA000CF90BF90AF909F908F907F906F905F90EC
:102CB0004F903F902F9008950C94D614CF93DF93AC
:102CC0006CE370E00E944F24EC01AB01770F660BC0
:102CD000770B8FEF93E00E9431156FEE71E08FEF6D
:102CE00093E00E945C16AE01DD0F660B770B8FEF51
:102CF00093E0DF91CF910C94311566E871E0019774
:102D000011F06DE871E086E593E00C945C16CF93CA
:102D1000DF936CE370E00E944F24EC01AB01770F6E
:102D2000660B770B86E593E00E9431156FEE71E03C
:102D300086E593E00E945C16AE01DD0F660B770B13
:102D400086E593E0DF91CF910C94311585ED80936A
:102D5000BC008091AD029091AE02A091AF02B09103
:102D6000B0020796A11DB11D23E0B695A7959795D2
:102D700087952A95D1F72091BC0024FD03C01092BD
:102D8000F60208954091AD025091AE026091AF02FB
:102D90007091B002452B462B472B69F30097A10594
:102DA000B10541F025E32A95F1F700000197A1094B
:102DB000B109E1CF8091AC020C942F08EF92FF9201
:102DC0000F931F93CF9392EF980F8E3008F0892FB7
:102DD0008770C82FC06492E0E92EF12C10E000E06B
:102DE000C0937C0080917A00806480937A00809107
:102DF0007A0086FDFCCF9091780080917900892738
:102E000098278927080F191F6AE070E080E090E09A
:102E10000E94B707EA94EF28E1F5B801110F880B7B
:102E2000990B0E94A32220E030E040EA50E40E9487
:102E3000A82320E030E040E05AE30E94A8239B0151
:102E4000AC0160E070E583E497E40E94F92120E0A2
:102E500030E44CE156E40E94872124E731E348E660
:102E60005DE30E94F9210E9460239B01AC0160E0B8
:102E700070E081E695E40E94F92120E030E848E81E
:102E800053E40E948721CF911F910F91FF90EF9003
:102E90000895EE24E394F12CA3CF1F920F920FB666
:102EA0000F9211242F933F934F935F936F937F93D0
:102EB0008F939F93AF93BF93EF93FF9380913B03C7
:102EC00090913C03A0913D03B0913E03892B8A2B46
:102ED0008B2BD1F190913603E0913703F0913803B9
:102EE00080818927808380913B0390913C03A0914E
:102EF0003D03B0913E03181619061A061B069CF4F2
:102F000080913B0390913C03A0913D03B0913E031F
:102F10000197A109B10980933B0390933C03A093CF
:102F20003D03B0933E03FF91EF91BF91AF919F910D
:102F30008F917F916F915F914F913F912F910F9062
:102F40000FBE0F901F901895809100010E943507C9
:102F5000EACF1F920F920FB60F9211242F933F9337
:102F60004F935F936F937F938F939F93AF93BF9391
:102F7000EF93FF9386E593E00E942606FF91EF9181
:102F8000BF91AF919F918F917F916F915F914F9181
:102F90003F912F910F900FBE0F901F9018951F9289
:102FA0000F920FB60F9211242F938F939F93EF934D
:102FB000FF93E0916603F09167038081E0916C03D9
:102FC000F0916D0382FD1BC0908180916F038F5F34
:102FD0008F7320917003821741F0E0916F03F0E04E
:102FE000EA5AFC4F958F80936F03FF91EF919F9169
:102FF0008F912F910F900FBE0F901F901895808189
:10300000F4CF1F920F920FB60F9211242F933F937C
:103010008F939F93AF93BF9380911D0390911E0355
:10302000A0911F03B091200330911C0323E0230FD4
:103030002D3758F50196A11DB11D20931C038093D7
:103040001D0390931E03A0931F03B0932003809150
:10305000210390912203A0912303B09124030196B0
:10306000A11DB11D8093210390932203A0932303FC
:10307000B0932403BF91AF919F918F913F912F9176
:103080000F900FBE0F901F90189526E8230F029601
:10309000A11DB11DD2CF1F920F920FB60F92112416
:1030A0002F933F934F935F936F937F938F939F9350
:1030B000AF93BF93EF93FF938091B900887F8036E1
:1030C00009F44AC0F0F5883209F4A7C018F5803138
:1030D00009F49BC0B8F4882309F4F9C0883009F4D6
:1030E00094C0FF91EF91BF91AF919F918F917F918C
:1030F0006F915F914F913F912F910F900FBE0F9065
:103100001F901895883109F488C0803251F7809358
:10311000F50214C0803409F49DC040F48033B9F343
:103120008833F9F68093F50285ECB0C0803509F458
:1031300085C0883509F496C0883499F60E94A61691
:10314000D0CF883909F48CC038F5883729F050F48D
:10315000883611F0803729F683E08093F6021092CA
:10316000F40257C0883809F47BC0803919F08038E0
:1031700009F0B7CF8091F402803208F071C0E0917D
:10318000F40281E08E0F8093F4028091BB00F0E0A6
:10319000EC52FD4F80833DC0803B39F0E0F4803A33
:1031A00009F479C0883A09F09CCF84E08093F60254
:1031B0001092D3021092D202E0912803F0912903D9
:1031C00009958091D20281110FC081E08093D202D3
:1031D0001092B20209C0803C09F4A6CF883C09F4E1
:1031E000A3CF883B09F07DCFE091D30281E08E0F21
:1031F0008093D302F0E0EE54FD4F80818093BB00BA
:103200009091D3028091D20229C080911B038093B8
:10321000BB0085EC8093BC0064CF90911A03809131
:103220001903981758F5E0911A0381E08E0F8093E7
:103230001A03F0E0E750FD4F8081E9CFE0911A03D7
:1032400081E08E0F80931A038091BB00F0E0E7507D
:10325000FD4F808390911A03809119039817C8F24B
:1032600085E8D8CFE0911A0381E08E0F80931A038E
:103270008091BB00F0E0E750FD4F80838091F80221
:1032800081115CCF81E08093F70284EA8093BC00D7
:103290001092F60226CF85EC8093BC001092F602C5
:1032A0008091F402803230F4E091F402F0E0EC52CC
:1032B000FD4F10826091F40270E0E0912603F091DE
:1032C000270384ED92E009951092F4020ACF109240
:1032D000F50234CFE6E5F3E01382128248EE53E0C4
:1032E00060E070E044835583668377838BE291E0EE
:1032F0009183808385EC90E09587848784EC90E0CF
:103300009787868780EC90E0918B808B81EC90E0B2
:10331000938B828B82EC90E0958B848B86EC90E093
:10332000978B868B118E128E138E148EA3EFB3E0C3
:1033300013961C921E92129714964D935D936D9363
:103340007C9317978DE391E011969C938E93EFEF0A
:10335000F3E01382128220E830E03583248380E496
:1033600090E0978386833187208793878287168AA8
:10337000158614861786168681E0858B848B2FEF41
:103380003FEF338B228B318B208B878B108E128EED
:10339000118E8FE491E091838083148E138EB68F0B
:1033A000A58F10A2178E8FEF84A385A386A387A372
:1033B00080A780E89AE1A6E0B0E085AB96ABA7AB2A
:1033C000B0AF80EA96E8A1E0B0E081AF92AFA3AFE2
:1033D000B4AF80E586AF17AE0895CF93DF93CDB736
:1033E000DEB72B970FB6F894DEBF0FBECDBF789433
:1033F00084B5826084BD84B5816084BD85B58260FA
:1034000085BD85B5816085BD80916E0081608093AA
:103410006E00109281008091810082608093810013
:103420008091810081608093810080918000816023
:10343000809380008091B10084608093B10080917E
:10344000B00081608093B00080917A0084608093A6
:103450007A0080917A00826080937A0080917A006D
:10346000816080937A0080917A00806880937A00EE
:103470001092C10061E08DE00E94610761E08BE085
:103480000E94610761E08AE00E94610761E089E0D3
:103490000E94610760E082E00E94610760E083E0D3
:1034A0000E94610760E084E00E946107E09166038A
:1034B000F091670382E08083E0916203F0916303FF
:1034C0001082E0916403F09165038FEC8083109289
:1034D0006E03E0916A03F0916B0386E08083E091D4
:1034E0006803F0916903808180618083E0916803C3
:1034F000F0916903808188608083E0916803F09196
:103500006903808180688083E0916803F09169039A
:1035100080818F7D808380911E0490911F04892B70
:1035200011F10E94B4142091050430910604809199
:10353000030490910404213231050CF044C2B90116
:103540006052710977FF02C06F5F7F4F7595679575
:103550008357910997FD019600E210E023E730E0E0
:103560004CE056E043C22091050430910604C901A5
:10357000079697FD0796B3E095958795BA95E1F77D
:103580002091030430910404AC01429FC001439F89
:10359000900D529F900D11240E94D42490931F04EB
:1035A00080931E04892B09F0BCCF0E94B41481E0E3
:1035B000809313048093140481E090E090931204AC
:1035C000809311049093100480930F0482E00E9472
:1035D000DE06892B01F58091510381111CC087E91A
:1035E00091E00E94631540914F0350915003465F54
:1035F0005F4F5093500340934F03052E000C660B12
:10360000770B86E593E00E94311567E771E086E568
:1036100093E00E94D61483E00E94DE06892B01F518
:103620008091510381111CC085EB91E00E946315CC
:1036300040914F03509150034A5051095093500309
:1036400040934F03052E000C660B770B86E593E045
:103650000E94311567E771E086E593E00E94D61479
:1036600084E00E94DE06892B09F073C58091510326
:1036700081116FC581E0809351038FE090E00E943B
:10368000DE1660934B0370934C0380934D0390932D
:103690004E0383ED91E00E94631561E08AE00E9491
:1036A000070761E089E00E94070741E050E05A8384
:1036B000498301E010E0E7E0CE2ED12CF4E1EF2EBB
:1036C000F12C80914F0390915003E981FA818E177C
:1036D0009F070CF47BC38EE090E00E94DE1660939F
:1036E0004703709348038093490390934A032091C2
:1036F0004B0330914C0340914D0350914E030E9477
:10370000532360E087FD61E08AE00E940707109282
:103710000C0410920B0410920E0410920D041092DF
:103720001204109211041092100410920F0463EE10
:1037300071E08FEF93E00E945C164091320350914C
:103740003303609134037091350322E08FEF93E0EF
:103750000E94761510920C0410920B0410920E0425
:1037600010920D041093120400931104109310048E
:1037700000930F0463EE71E08FEF93E00E945C16FC
:1037800040914B0350914C0360914D0370914E0357
:1037900022E08FEF93E00E94761580914B03909189
:1037A0004C03A0914D03B0914E038093320390934C
:1037B0003303A0933403B09335030E94291310926E
:1037C0000C0410920B04D0920E04C0920D041092BF
:1037D0001204109211041092100410920F0461EF61
:1037E00071E08FEF93E00E945C1640912E035091A0
:1037F0002F03609130037091310322E08FEF93E04B
:103800000E94761510920C0410920B04D0920E04B4
:10381000C0920D041093120400931104109310042D
:1038200000930F0461EF71E08FEF93E00E945C164C
:1038300040914703509148036091490370914A03B6
:1038400022E08FEF93E00E947615809147039091DC
:103850004803A0914903B0914A0380932E039093AB
:103860002F03A0933003B09331030E9429131092C9
:103870000C0410920B04F0920E04E0920D041092CE
:103880001204109211041092100410920F046EEFA3
:1038900071E08FEF93E00E945C1680912C03909171
:1038A0002D030E945E1610920C0410920B04F092ED
:1038B0000E04E0920D04109312040093110410936F
:1038C000100400930F046EEF71E08FEF93E00E94FD
:1038D0005C1680914F039091500329813A81821B9D
:1038E000930B0E945E1680914F0390915003498183
:1038F0005A81841B950B90932D0380932C030E9477
:10390000291366E072E086E593E00E945C168981E7
:103910009A810E94871664E172E086E593E00E9436
:103920005C1680914F03909150030E94871664E2C9
:1039300072E086E593E00E945C1640914B03509143
:103940004C0360914D0370914E0322E086E593E0B5
:103950000E94761565E372E086E593E00E945C16AE
:1039600040914703509148036091490370914A0385
:1039700022E086E593E00E94761566E472E086E533
:1039800093E00E945C1689E00E94DE060E947D168C
:1039900067E572E086E593E00E945C168AE00E948B
:1039A000DE060E947D1689E791E00E94631568EEAD
:1039B00073E080E090E00E94B70789819A810196C8
:1039C0009A8389837ECEB9016054710977FF02C062
:1039D0006F5F7F4F759567958255910997FD0196A9
:1039E00000E410E022E530E04CEE57E09595879535
:1039F0000E94A30E82E08093210480911C04909188
:103A00001D04892B09F4E0C08CE3809320041092FC
:103A10002B0310922A0310925303109252030E9418
:103A200011088FE995E0909329038093280380EA99
:103A300095E090932703809326038091270487FDC8
:103A40001EC061E00E94610761E0809127040E942E
:103A5000070761E070E080E090E00E94B70760E057
:103A6000809127040E9407076AE070E080E090E000
:103A70000E94B70761E0809127040E9407078091A8
:103A80001C0490911D04892B09F45FC1209134041A
:103A900030913504409136045091370460E074E26F
:103AA00084EF90E00E9463242051310941095109BB
:103AB00056954795379527952093B80064E088E0A0
:103AC00096E00E940F126091050461508FEF93E021
:103AD0000E94C41264E084E096E00E940F1280917C
:103AE000210460E1813009F064E18FEF93E00E94EE
:103AF000C41264E080E096E00E940F128FE8809389
:103B00003C0480910304909104048038910509F0ED
:103B100035C180910504909106048034910509F027
:103B200042C180912104813009F026C18FE9809340
:103B30003C0492E199836AED8FEF93E00E94C412F6
:103B400069818FEF93E00E94C41261E88FEF93E0E8
:103B50000E94C41260913C048FEF93E00E94C41253
:103B600069ED8FEF93E00E94C4128091210462E21C
:103B7000813009F061EF8FEF93E00E94C41266E09C
:103B80008AEF95E00E940F1280911C0490911D0411
:103B9000892B09F411C120913804309139044091E6
:103BA0003A0450913B0460E074E284EF90E00E949C
:103BB000632420513109410951095695479537959C
:103BC00027952093B800F1CC61E0809125040E94F4
:103BD000610761E0809126040E94610780912504BD
:103BE000082E000C990BFC01E653F54FE491F0E030
:103BF000EE0FFF1FE054F54F2591349130932D04C3
:103C000020932C04FC01E455F54FE491E093320439
:103C100080912604082E000C990BFC01E653F54F09
:103C2000E491F0E0EE0FFF1FE054F54FA591B49141
:103C3000B0932F04A0932E04FC01E455F54FE491BA
:103C4000E09333048C91E82BEC9380911A049091CB
:103C50001B04892B09F436C05FB75983F89480910F
:103C60002503811127C0E4EDFAE08491E6EBFAE048
:103C70009491E82FF0E0EE0FFF1FE051FA4FA5916D
:103C8000B491EC91E92321F461E08AE00E940707F6
:103C900061E08AE00E9461078CB580618CBD8CB5C3
:103CA00080648CBD61E08DE00E94610761E08BE083
:103CB0000E946107809125038F5F8093250389818E
:103CC0008FBFBBCE61E0809123040E94610761E059
:103CD000809124040E94610780912304082E000C27
:103CE000990BFC01E653F54FE491F0E0EE0FFF1F56
:103CF000E054F54F25913491309329042093280402
:103D0000FC01E455F54FE491E093300480912404E4
:103D1000082E000C990BFC01E653F54FE491F0E0FE
:103D2000EE0FFF1FE054F54FA591B491B0932B0413
:103D3000A0932A04FC01E455F54FE491E09331048B
:103D40008C91E095E823EC9378CE80911A049091C1
:103D50001B04892B31F080913D0490913E040E9418
:103D60002613E0912E04F0912F049081809133046A
:103D7000809589238083A2CE8FECD9CE80369105A1
:103D8000A9F48091050490910604409791F48091E4
:103D90002104813031F480E180933C04E2E0E98346
:103DA000CACE8FEAF9CFF2E0F983C5CE22E02983AB
:103DB000C2CE32E03983BFCEE0912E04F0912F04C1
:103DC000808190913304892B8083EFCB60E08AE07F
:103DD0000E94070760E089E00E94070706E010E004
:103DE00061E08DE00E94070768EC70E080E090E001
:103DF0000E94B70760E08DE00E940707E7E1F1E06D
:103E0000FA83E98327E031E038872F83E981FA815B
:103E100061917191FA83E98388EE93E00E944F24C7
:103E20007A8769872B01770F66087708EF81F88515
:103E300021903190F887EF83809100018B3009F059
:103E40007CC0EEEDFAE0F491FB87F7FD61C161E023
:103E50008BE00E946107FB85FF2321F02B85223038
:103E600009F086C14101B12CA12C60E072E18AE722
:103E700090E0A50191010E9485242B833C834D8312
:103E80005E8369017A0131E0C31AD108E108F108C3
:103E90004FEFC416D104E104F10409F00CF410C191
:103EA00060E472E48FE090E0A50191010E94852416
:103EB00069017A0181E0C81AD108E108F1089B85FF
:103EC000923009F0B1C082E0EFEFCE16D104E104E8
:103ED000F10409F00CF405C260E970ED83E090E0B4
:103EE000A50191010E94852469017A01F1E0CF1AB0
:103EF000D108E108F10883E02FEFC216D104E104F4
:103F0000F10409F00CF4EDC168E478EE81E090E092
:103F1000A50191010E94852469017A0181E0C81AF6
:103F2000D108E108F1089FEFC916D104E104F104BA
:103F300011F00CF09DC084E0D4C18F3F09F0E8C0BF
:103F40008BE080930001EEEDFAE0F491FB87FF3FF8
:103F500009F4DEC0F13031F158F0F23009F441C01B
:103F60005B8557FDD5C061E08BE00E94610776CF8D
:103F700014BC15BC84B5826084BD85B5816085BDE7
:103F8000E5EDFAE08491E82FF0E0EE0FFF1FE0543A
:103F9000F54F85919491E7EBFAE0849180933A0391
:103FA0001B8655CF10928000109281008091810075
:103FB000886080938100809181008160809381007E
:103FC000E5EDFAE08491E82FF0E0EE0FFF1FE054FA
:103FD000F54F85919491E7EBFAE084918093390352
:103FE00036CF1092B0001092B1008091B000826084
:103FF0008093B0008091B10081608093B100E5EDC5
:10400000FAE08491E82FF0E0EE0FFF1FE054F54F47
:10401000859194919093380380933703E7EBFAE00E
:1040200084918093360313CF3FEFC316D104E1048C
:10403000F10409F00CF49AC068E478EE81E090E0B5
:10404000A50191010E94852469017A0181E0C81AC5
:10405000D108E108F1089B85992309F40EC12FEFDF
:10406000C216D104E104F10411F00CF00FC163CFCA
:1040700064E274EF80E090E0A50194010E94852441
:1040800069017A01E1E0CE1AD108E108F10885E082
:10409000FFEFCF16D104E104F10409F008F421C1C7
:1040A00062E17AE780E090E0A50194010E94852416
:1040B00069017A01E1E0CE1AD108E108F108F8C0FF
:1040C00081E0EB85E1110DC195B5987F892B85BD08
:1040D0002FEF3FEFA901411451046104710409F06D
:1040E00081C0FB85F13009F48BC0F23009F49AC02D
:1040F000F1110EC0C7BC2093430330934403409397
:1041000045035093460380916E00826080936E0059
:10411000C301B2010E94A32226E636E646EA5FE327
:104120000E94A8230E946B22072E000C880B990B7B
:104130000E94B7078BE00E94350729813A812752F8
:10414000314009F063CE0150110909F049CE1092B7
:10415000510380E090E0892B09F438CA0E941206CE
:10416000882309F433CA0E94000030CA82E0A9CF34
:10417000B12CA12C60E072E18AE790E0A5019101E9
:104180000E94852469017A01F1E0CF1AD108E10883
:10419000F10891E0C114D10421E0E206F10484F0B9
:1041A00068E478EE81E090E0A50191010E94852409
:1041B00069017A0181E0C81AD108E108F10893E0A9
:1041C000EB85E13009F084CF80918100887F892BD5
:1041D000809381002FEF3FEFA90141145104610446
:1041E000710471F09101220F331FA985BA850E94D5
:1041F000A42428EE33E040E050E00E94632471CF15
:10420000D0928900C092880020933F0330934003EE
:10421000409341035093420380916F0082608093EA
:104220006F0076CFC092B30020933B0330933C03E2
:1042300040933D0350933E038091700082608093D1
:10424000700066CF84E0FFEFCF16D104E104F104E3
:1042500009F008F439CFCB80DC80ED80FE808AE065
:10426000F594E794D794C7948A95D1F7E1E0CE1AF4
:10427000D108E108F10885E027CF83E0FFEFCF16F2
:10428000D104E104F10409F00CF41ECF62E17AE7F5
:1042900080E090E0A50194010E94852469017A01E3
:1042A00081E0C81AD108E108F1089B85992351F2F1
:1042B00086E09FEFC916D104E104F10491F088F083
:1042C000CB80DC80ED80FE809AE0F594E794D79473
:1042D000C7949A95D1F781E0C81AD108E108F1088E
:1042E00087E09091B100987F892B8093B100F0CE48
:1042F0008FE491E0909300048093FF0380911E046B
:1043000090911F04009711F00C9470250895505857
:10431000BB27AA270E949F210C9419230E940B23DC
:1043200038F00E94122320F039F49F3F19F426F44C
:104330000C9408230EF4E095E7FB0C940223E92F7C
:104340000E942A2358F3BA17620773078407950758
:1043500020F079F4A6F50C944C230EF4E0950B2E86
:10436000BA2FA02D0B01B90190010C01CA01A001C7
:104370001124FF27591B99F0593F50F4503E68F122
:104380001A16F040A22F232F342F4427585FF3CF63
:10439000469537952795A795F0405395C9F77EF434
:1043A0001F16BA0B620B730B840BBAF09150A1F07D
:1043B000FF0FBB1F661F771F881FC2F70EC0BA0F03
:1043C000621F731F841F48F4879577956795B7958B
:1043D000F7959E3F08F0B0CF9395880F08F0992786
:1043E000EE0F9795879508950E94DE2208F481E0EC
:1043F00008950E940D220C9419230E94122358F054
:104400000E940B2340F029F45F3F29F00C94022313
:1044100051110C944D230C9408230E942A2368F315
:104420009923B1F3552391F3951B550BBB27AA276D
:1044300062177307840738F09F5F5F4F220F331FA7
:10444000441FAA1FA9F335D00E2E3AF0E0E832D06F
:1044500091505040E695001CCAF72BD0FE2F29D072
:10446000660F771F881FBB1F261737074807AB0744
:10447000B0E809F0BB0B802DBF01FF2793585F4FB9
:104480003AF09E3F510578F00C9402230C944D2392
:104490005F3FE4F3983ED4F3869577956795B7959B
:1044A000F7959F5FC9F7880F911D9695879597F9A6
:1044B0000895E1E0660F771F881FBB1F621773071F
:1044C0008407BA0720F0621B730B840BBA0BEE1F34
:1044D00088F7E09508950E9472226894B1110C94B7
:1044E0004D2308950E94322388F09F5798F0B92FEA
:1044F0009927B751B0F0E1F0660F771F881F991F19
:104500001AF0BA95C9F714C0B13091F00E944C234B
:10451000B1E008950C944C23672F782F8827B85F5B
:1045200039F0B93FCCF3869577956795B395D9F770
:104530003EF490958095709561957F4F8F4F9F4F7A
:104540000895E89409C097FB3EF490958095709586
:1045500061957F4F8F4F9F4F9923A9F0F92F96E9CF
:10456000BB279395F695879577956795B795F11144
:10457000F8CFFAF4BB0F11F460FF1BC06F5F7F4FE1
:104580008F4F9F4F16C0882311F096E911C07723F3
:1045900021F09EE8872F762F05C0662371F096E8FC
:1045A000862F70E060E02AF09A95660F771F881FCB
:1045B000DAF7880F9695879597F90895990F00086F
:1045C000550FAA0BE0E8FEEF16161706E807F907E5
:1045D000C0F012161306E407F50798F0621B730B80
:1045E000840B950B39F40A2661F0232B242B252B01
:1045F00021F408950A2609F4A140A6958FEF811DA4
:10460000811D089597F99F6780E870E060E0089544
:104610009FEF80EC089500240A94161617061806DA
:104620000906089500240A941216130614060506B6
:104630000895092E0394000C11F4882352F0BB0F47
:1046400040F4BF2B11F460FF04C06F5F7F4F8F4FAA
:104650009F4F089557FD9058440F551F59F05F3FE5
:1046600071F04795880F97FB991F61F09F3F79F094
:1046700087950895121613061406551FF2CF469516
:10468000F1DF08C0161617061806991FF1CF869598
:104690007105610508940895E894BB27662777277C
:1046A000CB0197F908950E94DE2208F48FEF089558
:1046B00016F00C941A240C94082368940C9402238A
:1046C0000E943223A8F39923C1F3AEF3DF93CF9373
:1046D0001F930F93FF92C92FDD2788232AF021977C
:1046E000660F771F881FDAF720E030E040E85FEBC5
:1046F0009FE3883920F0803E38F021968F770E9422
:104700008821E8E6F0E004C00E948821E5E9F0E0B5
:104710000E9428248B01BE01EC01FB2E6F5771090A
:104720007595771F880B990B0E94A32228E132E729
:1047300041E35FE30E94BB23AF2D9801AE01FF90E0
:104740000F911F91CF91DF910E949F210C9419230B
:104750000E94BB230C9419230E940B2338F00E9463
:10476000122320F0952311F00C9402230C940823BB
:1047700011240C944D230E942A2370F3959FC1F3BA
:10478000950F50E0551F629FF001729FBB27F00DFF
:10479000B11D639FAA27F00DB11DAA1F649F662754
:1047A000B00DA11D661F829F2227B00DA11D621FA3
:1047B000739FB00DA11D621F839FA00D611D221F5D
:1047C000749F3327A00D611D231F849F600D211D41
:1047D000822F762F6A2F11249F5750409AF0F1F0C4
:1047E00088234AF0EE0FFF1FBB1F661F771F881F2D
:1047F00091505040A9F79E3F510580F00C94022340
:104800000C944D235F3FE4F3983ED4F3869577955F
:104810006795B795F795E7959F5FC1F7FE2B880FD2
:10482000911D9695879597F908950E94DE22880B31
:10483000990B08959F3F31F0915020F4879577951B
:104840006795B795880F911D9695879597F9089567
:10485000DF93CF931F930F93FF92EF92DF927B0131
:104860008C01689406C0DA2EEF010E94BB23FE0182
:10487000E894A5912591359145915591A6F3EF01C5
:104880000E949F21FE019701A801DA9469F7DF9049
:10489000EF90FF900F911F91CF91DF91089597FBBB
:1048A000072E16F4009407D077FD09D00E94AB24A0
:1048B00007FC05D03EF4909581959F4F0895709523
:1048C00061957F4F0895A1E21A2EAA1BBB1BFD0123
:1048D0000DC0AA1FBB1FEE1FFF1FA217B307E407DF
:1048E000F50720F0A21BB30BE40BF50B661F771F37
:1048F000881F991F1A9469F7609570958095909517
:104900009B01AC01BD01CF010895052E97FB1EF45C
:1049100000940E949C2457FD07D00E94632407FC4A
:1049200003D04EF40C949C245095409530952195DD
:104930003F4F4F4F5F4F08959095809570956195CB
:104940007F4F8F4F9F4F08950E94C524B7FF089552
:10495000821B930B0895AA1BBB1B51E107C0AA1F22
:10496000BB1FA617B70710F0A61BB70B881F991F10
:104970005A95A9F780959095BC01CD010895EE0F49
:10498000FF1F0590F491E02D0994A29FB001B39F01
:10499000C001A39F700D811D1124911DB29F700D48
:1049A000811D1124911D08950F931F93CF93DF93C1
:1049B0008230910510F482E090E0E0914104F091A2
:1049C000420430E020E0B0E0A0E0309799F42115F7
:1049D000310509F44AC0281B390B24303105D8F5BC
:1049E0008A819B816115710589F1FB019383828323
:1049F000FE0111C04081518102811381481759077E
:104A0000E0F04817590799F4109761F012960C934B
:104A1000129713961C933296CF01DF91CF911F917D
:104A20000F9108950093410410934204F4CF21158F
:104A3000310551F04217530738F0A901DB019A0103
:104A4000BD01DF01F801C1CFEF01F9CF909342041E
:104A500080934104CDCFFE01E20FF31F8193919328
:104A60002250310939832883D7CF20913F043091D8
:104A70004004232B41F42091030130910401309331
:104A8000400420933F04209101013091020121153F
:104A9000310541F42DB73EB7409105015091060113
:104AA000241B350BE0913F04F0914004E217F3071B
:104AB000A0F42E1B3F0B2817390778F0AC014E5F8E
:104AC0005F4F2417350748F04E0F5F1F5093400487
:104AD00040933F04819391939FCFF0E0E0E09CCF1F
:104AE000CF93DF930097E9F0FC0132971382128293
:104AF000A0914104B0914204ED0130E020E0109714
:104B0000A1F420813181820F931F20913F043091C5
:104B100040042817390709F061C0F0934004E0937E
:104B20003F04DF91CF910895EA01CE17DF07E8F542
:104B30004A815B819E0141155105B1F7E901FB8373
:104B4000EA8349915991C40FD51FEC17FD0761F411
:104B5000808191810296840F951FE9019983888352
:104B6000828193819B838A83F0E0E0E012968D91AD
:104B70009C9113970097B9F52D913C911197CD0118
:104B80000296820F931F20913F0430914004281712
:104B9000390739F6309751F51092420410924104CA
:104BA000B0934004A0933F04BCCFD383C283408121
:104BB0005181840F951FC817D90761F44E5F5F4F6D
:104BC00088819981480F591F518340838A819B8135
:104BD000938382832115310509F0B0CFF09342040D
:104BE000E09341049ECFFD01DC01C0CF138212820D
:104BF000D7CF81E090E0F8940C940526DC0101C049
:104C00006D9341505040E0F7089515E0C3E7D5E0BB
:104C100004C0FE010E94BF242196C437D107C9F702
:044C2000F894FFCF36
:104C2400FF0000430480000601C400C400DC00C48B
:104C3400000000F700060104000800080004000456
:104C440000040004000400000000004806A805D584
:104C54000595060606E405F80500000000A6087997
:104C640008B1149E0572085F08500800000000F7A0
:104C74000BA805B114B01458119E059C0E740E9027
:104C84000E840E040F9E05BD095A14C8101111BDDF
:104C94000DA00D280DC90C0D0A006E616E00696E21
:104CA40066006F7666004C696761646F00446573E3
:104CB4006C696761646F00436C69636F75206E6F24
:104CC40020626F74616F20646520696E6372656D24
:104CD400656E746F00436C69636F75206E6F20623C
:104CE4006F74616F2064652064656372656D656EC1
:104CF400746F0050726F6772616D612073746172BA
:104D0400746F0074656D702E207365746164613A0C
:104D14000074656D702E20617475616C3A00466193
:104D24006C74613A200054656D706F204174756134
:104D34006C3A20007C54656D706F20536574616417
:104D44006F3A2000207C54656D702E205365746189
:104D5400646F3A2000207C54656D702E204D65648C
:104D64006964613A2000207C537461747573204235
:104D74006F6D62613A2000207C53746174757320F6
:0C4D8400417175656365646F723A200030
:00000001FF
